:020000040002F8
:10600000A06F0020C1630200C9630200CB630200DD
:10601000CD630200CF630200D163020000000000E4
:10602000000000000000000000000000D363020038
:10603000D563020000000000D7630200D9630200AC
:1060400081660200DB630200916A02005167020070
:1060500061670200DB630200D5640200DB630200BB
:10606000DB630200DB630200DB630200DB63020030
:10607000DB630200DB630200DB630200DB63020020
:10608000DB630200D9660200DB630200DB6302000F
:1060900071670200DB63020075670200DB630200C8
:1060A000DB630200DB630200DB630200DB630200F0
:1060B000DB630200DB630200000000000000000060
:1060C000DB630200DB630200DB630200DB630200D0
:1060D000DB630200DB630200DB6302000000000000
:1060E00000000000000000000000000000000000B0
:1060F00000000000000000000000000000000000A0
:10610000000000000000000000000000000000008F
:10611000000000000000000000000000000000007F
:10612000000000000000000000000000000000006F
:10613000000000000000000000000000000000005F
:10614000000000000000000000000000000000004F
:10615000000000000000000000000000000000003F
:10616000000000000000000000000000000000002F
:10617000000000000000000000000000000000001F
:10618000000000000000000000000000000000000F
:1061900000000000000000000000000000000000FF
:1061A00000000000000000000000000000000000EF
:1061B00000000000000000000000000000000000DF
:1061C00000000000000000000000000000000000CF
:1061D00000000000000000000000000000000000BF
:1061E00000000000000000000000000000000000AF
:1061F000000000000000000000000000000000009F
:10620000DFF80CD000F026F9004800477D7302004B
:10621000A06F002030B450E8012F93B2C48923440A
:106220008489A34228BF1B1B0489A34202BFBFF37A
:106230002F8F002007E0C3EA020340E80134002C5E
:10624000E9D14FF001000A6030BC704750E8012FDF
:10625000C2EA024240E801210029F7D1704730B478
:1062600050E8022F1FFAA2F3C488A34202BFBFF373
:106270002F8F00200DE0C48923448489A34228BFC6
:106280001B1BC2EA034340E80234002CE8D14FF064
:1062900001000A6030BC704750E8022FC2EA224277
:1062A00040E802210029F7D17047034653E8022F46
:1062B000D988B2EB324F4FF0000017BF92B241EADB
:1062C000014142EA014104E05A68B2EB324F08BF93
:1062D000012043E80212002AE8D1704730B4044696
:1062E00054E8000F0D4644E80053002BF8D1156028
:1062F00030BC704730B4044654E8000F40EA010552
:1063000044E80053002BF7D1156030BC704730B41F
:10631000044654E8000F00EA010544E80053002B4E
:10632000F7D1156030BC704730B4044654E8000F14
:1063300080EA010544E80053002BF7D1156030BC1A
:10634000704730B4044654E8000F00EB010544E800
:106350000053002BF7D1156030BC704730B40446B1
:1063600054E8000FA0EB010544E80053002BF7D1DF
:10637000156030BC704770B404464FF0000054E81C
:10638000006F0D68AE4207BF44E80023012044E8D7
:1063900000630E60002B1CBF0020F0E770BC70474C
:1063A00030B4044654E8000F88422CBF451A054615
:1063B00044E80053002BF5D1156030BC7047000055
:1063C0000648804706480047FEE7FEE7FEE7FEE78F
:1063D000FEE7FEE7FEE7FEE7FEE7FEE7796702007D
:1063E0000162020000487047A898020040EA0103D9
:1063F0009B0703D009E008C9121F08C0042AFAD27B
:1064000003E011F8013B00F8013B521EF9D270473E
:10641000D2B201E000F8012B491EFBD270470022E6
:10642000F6E710B513460A4604461946FFF7F0FF93
:10643000204610BD421C10F8011B0029FBD1801A18
:106440007047034611F8012B00F8012B002AF9D1FF
:1064500018467047064C074D06E0E06840F001031F
:1064600094E8070098471034AC42F6D3FFF7CCFE0F
:106470006C9D02008C9D020070B501EB020410F8C7
:10648000015B15F0070301D110F8013B2A1106D179
:1064900010F8012B03E010F8016B01F8016B5B1E93
:1064A000F9D12B0705D40023521E0FD401F8013B6C
:1064B000FAE710F8013B02F10202A1EB030303E04B
:1064C00013F8015B01F8015B521EF9D5A142D6D346
:1064D000002070BD2DE9F04700268AB0DFF84C910E
:1064E000B0464FF48075012437460596284601F0E2
:1064F000A1FA38B1D9F80403204203D0284601F0AC
:106500008FFA26432D1D64007F1CADB2082FEDD3FA
:106510004FF4BE74204601F08DFA48B1204601F0D8
:106520007FFA46F0004605AA0121002001F064FA36
:106530003F4D16F0FF0F14D00127002437420CD036
:106540003C4800EB840108680968C0F3042055F852
:106550002420C1F3014102B190477F00641C082C44
:10656000ECD3002E5EDA4FF0FF30CDE90680002636
:106570003446281910F8507F90F9000027F0C00821
:10658000401C3BD007A9404601F046F810B34FEA43
:106590009719404600F0BAFC55F820701FB1B9F1C8
:1065A000030F03D006E0B9F1030F27D106A9404637
:1065B00001F03AF84FF0A04101EB8800D0F8000755
:1065C00005A9C0F3014A404601F026F818B1BAF116
:1065D000020F03D012E0BAF1030F0FD1B9F1030F8C
:1065E00008D1BAF1020F1BD00221404601F0F4F9A4
:1065F000761CF6B217B149464046B847641C042CD5
:10660000B7D3002E0ED06A460121002001F0F4F924
:1066100005990098884205D0059006980790A6E74E
:106620000321E2E70AB0BDE8F08700000060004007
:10663000B84500201065004000F01F020121914084
:1066400040094FF0E02202EB8000C0F88012704752
:1066500000F01F020121914040094FF0E02202EBBF
:106660008000C0F80011704700F01F020121914026
:1066700040094FF0E02202EB8000C0F800127047A2
:1066800070B54FF48076304600F0D8FF114CB50558
:1066900060B1304600F0D9FF0120C5F808036079E9
:1066A00020B9012060712168002088474FF482766C
:1066B000304600F0C3FF00280AD0304600F0C5FF86
:1066C0000220C5F808032168BDE870400120084792
:1066D00070BD0000F04300200448002101644164C3
:1066E0008164C1640160416002F072BD001101402B
:1066F00000F0D4B970B50E46144900EB400001EB30
:10670000C00518351446686920B101280FD0022849
:1067100005D113E0284600F0F5F9A04201D200248B
:1067200011E022463146284600F024FA0BE02846C4
:1067300000F0E8F9A042F4D20446F2E731462846D8
:1067400000F0EBF90446204670BD0000144D002017
:106750000149024802F0D4B814460020003000403D
:1067600002494FF0402002F0CBB800002046002044
:1067700002F0A0BC01F0C0BEF0B5B3480023021D7A
:106780000178101D01254FF0805406290BD1167891
:10679000360708D10678C6F30316032E06D0042E5A
:1067A00004D0052E02D0062907D00EE0B4F82463E9
:1067B000A64FC6F304263E6002E01678360704D1E1
:1067C0000678C6F30316032E02D0062904D00FE084
:1067D000A04F9F4E7E670EE01678360708D10678E8
:1067E000C6F30316032E06D0042E04D0052E02D0C5
:1067F000062907D00EE0D4F84462974FC6F342361C
:106800003E6002E01678360704D10678C6F3031618
:10681000032E02D0062906D011E0904E376827F0EB
:10682000807737600EE01678360708D10678C6F311
:106830000316032E06D0042E04D0052E02D00629FE
:1068400007D00EE0864E33607360834E361F336090
:1068500002E01678360704D10678C6F30316032E35
:1068600002D0062905D00CE07B4F032664373E603A
:106870000AE01678360704D10678C6F30316032E0D
:1068800002D006290DD014E0764F05263E60754EE5
:1068900078363560734E083633603F263F1D3E60C4
:1068A00002E01678360704D10678C6F30316052EE3
:1068B00002D0062957D062E06B4E36686B4F3E60BF
:1068C000694E361D36683F1D3E60674E0836366895
:1068D0003F1D3E60644E0C3636683F1D3E60624E82
:1068E000103636683F1D3E605F4E143636683F1DD9
:1068F0003E605D4E183636685C4F20373E605A4E1B
:106900001C3636683F1D3E60574E203636683F1DA8
:106910003E60554E243636683F1D3E60524E283646
:1069200036683F1D3E60504E2C3636683F1D3E6037
:106930004D4E303636684D4F40373E604A4E343605
:1069400036683F1D3E60484E383636683F1D3E6013
:10695000454E3C3636683F1D3E60434E40363668F5
:106960003F1D3E6002E01678360708D10678C6F370
:106970000316032E06D0042E04D0052E02D00629BD
:1069800007D019E0D4F85812394A01F04F011160CC
:1069900002E0117809070FD10078C0F30310032833
:1069A00003D0042801D0052806D132480168C90760
:1069B00002D06FF001010160D4F83001062808D13F
:1069C000D4F83401062804D12B48016841F48061D1
:1069D000016022487438016841F470010160BFF31E
:1069E0004F8FBFF36F8F4FF01021D1F800020028B6
:1069F00003DBD1F80402002821DA204A1560204880
:106A00000468002CFCD01524C1F800420568002D54
:106A1000FCD0C1F8044201680029FCD01360016871
:106A20000029FCD0BFF34F8F0C48F0380168154A9D
:106A300001F4E06111430160BFF34F8FFEE713499A
:106A400011480860F0BD0000E00F00F04035014043
:106A50000DF0ADBA00C007403C050040FCED00E081
:106A60000C010040105600400404001020C50040F6
:106A7000E40E0040000400403C17004004E50140E3
:106A800000E401400400FA050090D00368430020B0
:106A90000148006800470000F843002010B5124C80
:106AA00002202061606111A0A06104F17800E06122
:106AB0004FF4007020620020A06260620BA1A1640C
:106AC000E06204F51E71E1641021A065C4E91410B0
:106AD000E06509A1E01DFFF7B4FC08A12046FFF71F
:106AE000B0FC2020A07110BD144D00205465726DC3
:106AF000696E616C000000005254540053454747D2
:106B0000455200000269C1688A4203D88068401A71
:106B1000104400E0501A401E70472DE9F047C46849
:106B20001746894606464FF000083069A04201D951
:106B3000051B02E0B168201A0D1AB0686D1E001B1B
:106B4000A84200D80546BD4200D33D4670682A469B
:106B500020444946FFF74AFCB0687F1B2C44A844F8
:106B6000A944A04200D10024F460002FDDD14046AA
:106B7000BDE8F0872DE9F04104468846D4E90207D4
:106B8000C51BE168606816460844B54206D941460F
:106B9000FFF72CFCB819E060BDE8F0812A464146B9
:106BA000FFF724FC761B08EB050132466068FFF70F
:106BB0001DFCE660F0E702E008C8121F08C1002AC9
:106BC000FAD170477047002001E001C1121F002A6E
:106BD000FBD170470121202803DA8140054801409C
:106BE00003E0402802DA2038814009B101207047D3
:106BF00000207047FC06FFBD082806D228B10128F6
:106C000003D0042801D00120704700207047000005
:106C100072B601F09BF900BF00F0D8FF0028FBD14D
:106C2000104C0121208801EB00400FA101F0E0F899
:106C300010480068C00700D000BE2088022101EB88
:106C400000400DA101F0D4F8BFF34F8F0948E4389C
:106C500001680D4A01F4E06111430160BFF34F8FF9
:106C6000FEE70000D4440020466174616C20657228
:106C7000726F7200F0ED00E053797374656D2072ED
:106C800065736574000000000400FA050EB500216C
:106C90000091CDE901106A4644F20100FFF7B8FF08
:106CA0000EBD000030B5EFF3108172B60B4A946848
:106CB000012324B10370002900D162B630BD936076
:106CC000074B1D68074C254015601C605C685460CC
:106CD0005A175A6000220270EDE700003847002082
:106CE00080E100E0FC06FFBD09498A68002A0ED059
:106CF00000280CD1EFF3108072B60B68054A1360C0
:106D00004B68536000228A60002800D162B6704749
:106D10003847002000E100E078210148FFF77FBB01
:106D20002C450020FFF7F8BF011D00881D2802D167
:106D3000081D01F047BF70472DE9F04F07468588D1
:106D400002883D48012197B08346102A09D0112AB4
:106D500049D01A2A6CD1387AB1EB101F45D20122E2
:106D600044E0354C083CA068C0430B9061680BA818
:106D700000F0E2FB0B990CA800F048F92C220CA9BA
:106D80006846FFF733FB0026E946A04610E000BF47
:106D900009EB46005FF00004B0F804A008EB8400A3
:106DA000001D514600F09CFB641C1D2CF6D3761C84
:106DB0000098B042ECD8142D05D317B00420BDE8DC
:106DC000F04FFFF763BF2946584600F09FFB294666
:106DD00008F1040000F09AFBF87B012828D016483F
:106DE0002946001D15E029461AE000220221B1EBD8
:106DF000101F01D2012600E000260F49083901F1D9
:106E00001000041D294682B100F080FB36B12946EE
:106E1000204617B0BDE8F04F00F078BB2946204669
:106E200017B0BDE8F04F00F05BBB00F059FBF5E791
:106E300017B0BDE8F08F0000344500202DE9F8437D
:106E40000546861C00208DF8000090460F464FF046
:106E500001096846FFF726FF1B4C20683860D4E91B
:106E60000001401AA16804F21C47081A401C0FE0F8
:106E70000121384600F05AFB00F032FA014638464C
:106E800000F054FBD4E90001401AA168081A401C24
:106E90008642EDD8B8F1000F03D0052065F38910C4
:106EA00002E0062065F39F50A2682168114004EBC0
:106EB0008101C8602068304420609DF80000FFF721
:106EC00013FF4846BDE8F883F048002030B48268DC
:106ED0000468531C8360A154D0E901128A4202D392
:106EE00030BC00F0FCBB30BC70470000034803C856
:106EF000814201D10120704700207047F0480020F6
:106F00000268002A01D00846104770470249084429
:106F100090F9300070470000B845002070B5084C6B
:106F2000050009D010342168002907D008682060C6
:106F3000496828468847F6E70834F4E770BD000042
:106F4000A4450020054A012120B1012805D19170F6
:106F5000FFF7E4BF51700020FAE77047A445002016
:106F60002DE9F05F26484168F1B3DFF898B00E686C
:106F70008146DBF8004087688078E11B21F07F457F
:106F8000ED1CB0B9DFF880804FF48030C8F84403BE
:106F9000C8F804031120FFF74FFB1120FFF758FB3F
:106FA0004FF0010AC8F800A02F2001F079FB89F802
:106FB00002A0B54200D23546124BE8193C3320F00E
:106FC0007F401860DBF800105A46091B21F07F4112
:106FD000001BC91C20F07F4081420FD91068186047
:106FE0002F2001F05DFB00E004E0BDE8F05F112020
:106FF000FFF73ABBBDE8F05F01F006BFBDE8F09FC8
:1070000000440020041501400010014073B58CB00D
:107010000646002000900D9880B100246D46214660
:107020000DA800F068FA30B1009805EB40008480AC
:107030000098401C0090641C142CF0D32C2269464C
:107040003046FFF7D3F90EB070BD000010B5002137
:10705000024800F07CFA80F3100010BD0C4D0020B7
:107060000E4910B50A784C780023A24212D0521C67
:10707000D2B20A70022A00D10B70084A0B780C3287
:1070800052F8232002608868104420F07F40886016
:10709000012010BD0360002010BD0000004400204E
:1070A00030B50446006887B00D46806800281FD0C0
:1070B00018216846FFF7B3F90195A068059020797B
:1070C00010B1012810D107E001208DF800002069DF
:1070D0000290E068039005E002208DF80000E0686F
:1070E00000030290606904902068816868468847C0
:1070F00007B030BD2DE9FC5F0E1E8346DDE90C476D
:10710000C6F1000098469246814600DB08460125FC
:1071100003E000BF90FBFAF06D1C5045FADAA84579
:1071200000D945462CB1002E01DB780701D5A4F12A
:107130000104B80702D5B8F1000F0AD0F80708D14A
:107140003CB1A54205D2641E20215846FFF7BEFE81
:10715000F6E7002E02DA4E462D2102E0780703D52D
:107160002B215846FFF7B2FE07F0030002280BD18F
:10717000B8F1000F08D13CB1A54205D2641E302100
:107180005846FFF7A3FEF6E7CDE9004743465246CF
:107190003146584602F0E0F8BDE8FC9F0246002068
:1071A0001268930702D0530702D47047500714D5D2
:1071B00002F00300012802D002280CD105E0C2F33E
:1071C00083100B68801C184404E00223086803EB5A
:1071D00092521044086001207047086800EB9253F7
:1071E000C2F38910401CEEE72DE9F047394E002725
:1071F00080463D46DFF8E090D6F804A057E003D083
:107200000446D0F81C8035E099F8002002EB4201DA
:10721000521CD2B289F8002009EBC10199F8023062
:10722000091D9A4201D189F8005048680A7804463D
:10723000012A12D0022A02D0032A3BD108E001F031
:1072400097FF00B10127257434E00574C06900E0A0
:1072500070680028F9D170602CE0207C50BB8868F1
:107260006060C868A0600869E0604869A061F07863
:1072700000B165606268B168184B501A20F07F4019
:10728000984202D2A168084406E0881AA16820F05A
:107290007F40814202D9081A206000E025606560C5
:1072A0000120A56020742046E56101F043FFB8F19C
:1072B0000000A4D199F8001099F801008142A3D1EF
:1072C00017B97168514502D00120BDE8F087002050
:1072D000FBE70000004400202C460020FFFF7F0059
:1072E0002DE9FF410026234800F01DF92148001F29
:1072F000074600F018F9204C60680090A56800E08F
:1073000000986946284004EB80000C30FFF746FFE8
:107310000028F5D101AA009901EA050304EB8303D3
:10732000491CDB6842F82030401C00910228F2D34F
:10733000019800F0030001280BD0022810D1019819
:10734000032101EB90500099BDF80A6001EB900019
:1073500005E00198BDF80A60C0F38310084400906E
:10736000384600F0DDF808B10098606004B030469F
:10737000BDE8F081084D0020F048002008B54FF42A
:107380000041002000F09EFD08B1FFF77FFC00F0F7
:107390000FFC00F0B5FE08B1FFF778FC01F064F8CF
:1073A00008B1FFF773FC002000906946012000F04F
:1073B000E7FE08B1FFF76AFC684600F065FF08B118
:1073C000FFF764FCFFF7AEFC01F094FF0A480321CD
:1073D000008801EB004009A100F00AFD8BDF0D4998
:1073E0000D488ADF08B1FFF751FC00F0EFFB0028E1
:1073F000FBD100F099FEF8E7D4440020424C452030
:10740000616E642049324320737461727465642E26
:107410000000000070430020149402002DE9F047A2
:10742000C78804461B1DB3FBF7F0164607FB103256
:107430008946DDF820A001E02468401E0028FBD129
:10744000BD1A8046B54216D818E000BFBAF1000F49
:1074500004D0A118091D09EB080003E0A01809EBEE
:107460000801001D2A46FEF7C1FF00222468761B92
:10747000A844B74201D9354600E03D46002EE5D18B
:10748000BDE8F08730B5024659B100F047FD002154
:10749000074C09E004EB810315685B88AB4202D11D
:1074A0001160002030BD491C8142F3D3052030BD5E
:1074B0009C44002010B50A8849888A4203D1FEF70F
:1074C000EBFE012010BD002010BD70B50C46054636
:1074D000FEF7C5FE002802D061882868084470BD08
:1074E00001F01F0301229A40D243490900EB8100B9
:1074F000114600F021B84A0950F8220001F01F029D
:1075000001219140084000D00120704701F01F0385
:1075100001229A40490900EB8100114600F01CB895
:10752000002100F00FB8012100F016B808B56A4636
:10753000FEF707FF009808BD08B56A46FEF7E7FEAC
:10754000009808BD08B56A46FEF7E1FE08BD08B51B
:107550006A46FEF7C3FE08BD08B56A46FEF7CAFED6
:10756000009808BD08B56A46FEF7F8FE009808BD09
:1075700038B5044600258DF800506846FFF792FBA9
:1075800021686268086890420ED9401E0860017840
:10759000A38AE26801FB0325227A2168101AC0B28F
:1075A0000A79824200D208719DF80000FFF79CFB27
:1075B000284638BD38B5054600208DF800000C4639
:1075C0006846FFF76FFBE868A98A201AB0FBF1F163
:1075D0002A681068431C136001709DF80000FFF7D3
:1075E00083FB38BD10B530B1017A42680368891A4F
:1075F000C9B21A6006E00E2010BD03681A68541C58
:107600001C6011700A00A1F10101C9B2F5D1006836
:1076100000210171084610BDC20800F007030120D7
:10762000895C98400840704710B5C20800F0070315
:10763000885C01249C402043885410BD00F18040A8
:107640000068002800D00120704708B500F1804094
:10765000002101600068009008BD000070B50B4C6F
:10766000207808B185250FE00020A06060602061CF
:10767000E060074800F0F6FF054600F04FFF08B94C
:1076800000F0D8FF01202070284670BDA4450020DE
:10769000456F020038B500258DF800506846FFF7A9
:1076A00001FB074CE068401EE060E06810B900F0A4
:1076B000E9FFA5709DF80000FFF716FB38BD00003C
:1076C000A44500200FB408B50399002904D004AAEA
:1076D00000926A4600F00FF801B05DF814FB10B597
:1076E00082680446002A05D0D4E90403216898473B
:1076F0000020A06010BD2DE9FC4791460C0080469B
:1077000077D014F8011B39B125290ED04046FFF778
:10771000DDFB20780028F4D198F80C00002868D010
:107720004046BDE8FC47FFF7DABF00200122217880
:107730002B291BD02D2902D0302908D102E040F09E
:10774000010001E040F00200641C002AEFD1002596
:107750002A290ED02178A1F130020A2A11D205EB94
:107760008502641C01EB4205303DF1E740F0040066
:10777000EAE7D9F800100B1DC9F800300968641C4D
:107780000D44217800232E290CD1641C2178A1F10D
:1077900030020A2A06D203EB8302641C01EB420387
:1077A000303BF3E76C290DD068290BD0692921D033
:1077B0000BDC252918D0582931D063290ED0642933
:1077C00015D117E014F8011FECE7702969D073296F
:1077D00032D075291BD0782909D120E0D9F80000D2
:1077E000011DC9F8001001784046FFF76FFB641CCB
:1077F0008FE76CE0D9F800100A1DC9F8002009686D
:10780000CDE900500A224046FFF774FCEFE7D9F8B3
:1078100000100A1DC9F8002009680A2206E0D9F8FC
:1078200000100A1DC9F8002009681022CDE9005097
:10783000404601F091FDDAE7D9F8001000270A1D53
:10784000C9F800200E68C00705D112E0761C7F1C25
:107850004046FFF73BFB31780029F7D104E06D1E6D
:1078600020214046FFF732FBBD42C0D9002DF6D1A2
:10787000BDE74EB13046FEF7DDFD074604E06D1E64
:1078800020214046FFF722FBBD4206D9002DF6D14C
:1078900003E0761C4046FFF719FB31780029F8D148
:1078A000A5E7D9F80000011DC9F8001005683021CE
:1078B0004046FFF70BFB78214046FFF707FB082007
:1078C0000021CDE90001034610222946B0E7BDE8BA
:1078D000FC870000044801214174007A08B10020AF
:1078E0007047012070470000D04700200022074960
:1078F000012806D0032807D14A740020087401F03B
:1079000033BA4A740120F9E770470000D0470020DD
:1079100070B50246022801D0032A45D1234C207AB3
:10792000002841D0012833D0022831D1204800233B
:10793000022A006802D0032A2AD11BE0E360017901
:1079400011B1012924D10DE0D0E90565711B4FF477
:107950008056B14200D33146294481614569A9422C
:107960000ED015E00169491C0161426991420FD1B5
:10797000237213E0E168491CE160082908D9E3603B
:107980002372022A0AD00D21FFF78AFB01F0E2F9E7
:10799000607C28B1BDE8704000F0C6BD0021F3E76F
:1079A000BDE8704001F0E0B970BD0000D047002094
:1079B0002844002070B541EA4201DDE904564FF049
:1079C000A04441EA830141EA052104EB800041EA39
:1079D0000641C0F8001770BD4FF0A04202EB8002D4
:1079E00002F5E060D2F8002722F44032026002681B
:1079F00042EA01410160704718B5084B6C460144EA
:107A00001B68009306E000BF54F82030D3F810350F
:107A1000401C08C28142F7D818BD0000389402000B
:107A2000034908B50844002101600068009008BDC2
:107A30000060004002494058012800D000207047F3
:107A40000060004030B5134B01460020D3F81044CD
:107A500003F58263224609E0157A854205D1401C70
:107A60000A28F7DB4FF0FF3030BD5268002AF3D10F
:107A7000421CF9D0074A0872D2F8102422B1526889
:107A80004A601A68516030BD024AC2F810140022E0
:107A90004A6030BDF04800207047FEF729BE7047AD
:107AA00008B5034A00924023024A00F005F808BDD9
:107AB000358F0200F0470020F0B595B01C46154602
:107AC0000F4608461A9E00F0F9FA182109A8FEF799
:107AD000A6FC0E96CDE909540023082203A93846D6
:107AE00000F001FB05980690BDF81000ADF81C00F1
:107AF000BDF81200ADF81E0000208DF8210003989B
:107B0000082600F00300012802D0022818D032E035
:107B100003983346850AC0F3C2008DF8200003980D
:107B20000FA9C0F38314A200384600F0DCFA09A8BC
:107B3000009006AB22460FA9284600F01BFA1AE077
:107B40000398840DC0F3C2008DF82000082C01D2E8
:107B5000254600E0082533462A460FA9384600F09E
:107B6000C2FA2E44641B09AB06AA29460FA800F0EE
:107B700053F9002CEAD1384600F0A6FA15B0F0BD52
:107B80000A4A012902EBC00007D0022907D00329C5
:107B900007D0042907D00020704702207047042036
:107BA0007047007970474079704700008C9D020053
:107BB00010B5FFF772FF04210348FFF743FF0249A6
:107BC0000120487210BD00003C4400202DE9F04F18
:107BD0008DB0FFF78BF918B100200DB0BDE8F08F24
:107BE0007B494FF0000BC1F818B4BFF34F8F0C4620
:107BF000D84660680290A668304004EB80000C30E4
:107C000002A9FFF7CBFA50B121680298814201D84E
:107C10006160E1E7304004EB80000C30F0E70020C9
:107C200005AA029901EA060304EB8303491CDB68F9
:107C300042F82030401C02910228F2D3059800F04F
:107C40000300022802D001284CD0A9E00598502258
:107C5000810D8946B2EB905F00D850210D4665F347
:107C60009F50059008315B4800F0DFF9070078D09D
:107C700000F024FA4346082205A9384600F039FAF4
:107C8000029908F1080A3140701A8000001D8542EF
:107C900022D94F4E0C3630B104EB8101C2B20C3107
:107CA0009046281A04E03146EAB200269046304653
:107CB000C5B25346384600F01CFA0AEB080326B159
:107CC0002A463146384600F014FA029909F10300B9
:107CD00001EB900002903AE004EB81010C31534635
:107CE0002A46EFE70598C0F38310062800D3062044
:107CF000059960F38911C1F38310801C05918100FF
:107D0000344800F092F907004AD000F0D7F9434612
:107D1000082205A9384600F0ECF908F1080800250A
:107D20000FE00298434600EA0601401C04EB810183
:107D300002900C310422384600F0DBF908F1040807
:107D40006D1C0598C0F38310A842EAD84FB12048B3
:107D5000D0F81054D0F8180468B1384600F0B4F9DF
:107D600031E01DE0687A012804D12A6828463946A6
:107D7000126890476D68002DF4D1384600F0A4F9E0
:107D80008DF800B06846FEF78DFF1148D0F8180452
:107D900008B9029860609DF80000FEF7A5FF12E0A8
:107DA0000B48D0F8104404E02168204689688847D1
:107DB0006468002CF8D108480221008801EB0040DB
:107DC00006A100F015F8FFF791F880F0010004E734
:107DD000F04800201C9E0200D44400204261636BE6
:107DE000656E647320666C757368656400000000DE
:107DF00000231A4601F014B908B5012300926A461F
:107E000001F00EF908BD1CB5CDE9002302236A4636
:107E100001F006F91CBD00002DE9F0470E46804632
:107E20001C46924608293ED894F80C9000202073F6
:107E30001946104600F036FF0025B54206D218F864
:107E400005201AA12046FFF73DFC03E019A12046BA
:107E5000FFF738FC6D1C082DEFD317A12046FFF764
:107E600031FC0025B54210D218F80570FEF7BAFAB9
:107E70000068C05D10F03E0F01D03A4600E02E22AF
:107E80000EA12046FFF71EFC03E00DA12046FFF7E0
:107E900019FC6D1C082DE5D301222146504600F047
:107EA000E3FE84F80C90BDE8F08700002025303216
:107EB00078000000202020007C00000025630000E6
:107EC00020000000104910B5FF20886000200860E5
:107ED0004860C1F81804C1F8140481F820040B4864
:107EE00000F0F0F800280DD109480A490A4B401A61
:107EF000C108002003E000BF23F82000401C884296
:107F0000FAD3002010BD0000F04800201C9E0200A3
:107F10001C9E02008C9D02009C44002002480349E4
:107F2000401AC008704700001C9E02008C9D020091
:107F300013B56846FFF7A6FA08B100201CBD024839
:107F4000009950F831001CBD8C9D020070B50848A6
:107F50000125D0F8104480F8205405E065722168AE
:107F60002046496888476468002CF7D170BD00003E
:107F7000F04800202DE9FF4781460C9D00200C466B
:107F80002E7B2873984617462946184600F08AFE2D
:107F9000072F42D2DFE807F004090F161F2A360028
:107FA00049462846FFF78EFB37E0494628462268B7
:107FB000FFF788FB31E0D4E9002349462846FFF764
:107FC00081FB2AE0A0680090D4E9002349462846B6
:107FD000FFF778FB21E0D4E90201CDE90001D4E903
:107FE000002349462846FFF76DFB16E004F1080020
:107FF00007C88DE80700D4E9002349462846FFF763
:1080000061FB0AE004F108000FC88DE80F00D4E915
:10801000002349462846FFF755FB002229464046E3
:1080200000F022FE2E73BDE8FF872DE9F041858A1E
:1080300080462D1F4819C01CB0FBF5F0C6B2404663
:10804000FFF796FA040019D000202071012060711A
:10805000E580761E25460027C4F800800BE04046E8
:10806000FFF786FA60B16179491C617128600546A5
:108070007F1CC0F80080B742F1D32046BDE8F081F4
:10808000204600F002F80020F8E72DE9F04145799C
:1080900001466B1E002201E00968521C9A42FBD384
:1080A0000F680146002605E038460C68FFF782FAA3
:1080B0002146761CAE42F7D3BDE8F0810121001DB8
:1080C000FFF734BAFFF78EBA10B504460121001D40
:1080D000FFF748FA10F0FF0F04D12046BDE810402A
:1080E000FFF7D3BF10BD38B501240094FFF796F910
:1080F00038BD38B500240094FFF790F938BD000072
:10810000064910B500204870091D0860BFF35F8F55
:108110000349044800F034FA002010BD3044002028
:1081200090940200E447002008B500208DF800007C
:108130006846FEF7B7FDF1EE100A20F09F00E1EE71
:10814000100ABFF35F8F0849402008609DF80000C7
:10815000FEF7CAFD00F0E2F908B141DF08BD20BF1B
:1081600040BF20BF08BD000084E200E020B1034909
:1081700009680160002070470E2070477096020069
:108180002DE9FE4302460E460846FFF7EFFF0028A2
:1081900071D100240094019406208DF800204FF046
:1081A0000808ADF8040002948DF80280694620208A
:1081B000326869DF314F012540B100F025FA0246EF
:1081C00038882F4905EB0040FFF716FE00948DF824
:1081D00001408DF80280019402948DF803506946A5
:1081E0004020326869DF48B100F00EFA0246388854
:1081F000234905EB00404831FFF7FEFD0094019450
:1082000002948DF8005069460120326869DF50B150
:1082100000F0FAF93988024605EB0143184918467F
:108220009431FFF7E9FD4FF4B0600090019402949F
:108230006946A120326869DF48B100F0E5F90246DD
:1082400038880F4905EB0040E031FFF7D5FD009479
:10825000019402948DF800406946A020326869DFDD
:1082600040B100F0D1F902463888064905EB0040DC
:10827000FFF7C2FD0020BDE8FE830000DC440020C3
:1082800080960200B49702002DE9F0410446D0F830
:10829000008060DF2168194D074641451BD92888B9
:1082A000022606EB004016A1FFF7A2FD28884246F1
:1082B00006EB00401EA12368FFF7A5FD29480068D2
:1082C0002168800200F10050421A288826A106EB9E
:1082D0000040FFF791FD012467B1384600F094F9A2
:1082E000024628882BA104EB0040FFF785FD3846A5
:1082F000BDE8F0812F480470F9E70000DC4400205D
:10830000496E73756666696369656E742052414D86
:1083100020616C6C6F636174656420666F72207499
:10832000686520536F66744465766963652E000046
:108330004368616E6765207468652052414D207303
:1083400074617274206C6F636174696F6E20667201
:108350006F6D203078257820746F20307825782E46
:10836000000000000C0100104D6178696D756D20F2
:1083700052414D2073697A6520666F72206170707A
:108380006C69636174696F6E206973203078257839
:108390002E00000073645F626C655F656E61626CE5
:1083A0006528292072657475726E65642025732EA8
:1083B000000000009B44002030B5144891B00078C4
:1083C000002820D05FF03405ADF8405010A903A874
:1083D00061DF30B1052816D011B0BDE83040FEF79E
:1083E00055BC03AC0A49684600F0CAF807E000BF74
:1083F000D0E9002120469047684600F0D8F802985E
:108400000028E1D0F4E711B030BD00009B4400200B
:1084100074960200F8B5134C2078C0B10120A0700A
:1084200000F05AFD112814D0022000F06DFD002547
:108430008DF800506846FEF735FC11DF06462570C2
:108440009DF80000FEF750FC2EB13046F8BD082024
:10845000F8BD0020F8BDA57000F0A0FD032000F0DD
:1084600053FDF6E7984400207CB5204C207808B1F5
:1084700008207CBD0120A070002000F02DFD1128F7
:1084800019D0002000F040FD194800260068019036
:108490008DF800606846FEF705FC164901A810DF5C
:1084A00005000AD0002020709DF80000FEF71CFC9B
:1084B0002DB128467CBD00207CBD0120F3E7A670CD
:1084C00066700721162000F0BDFC08B1FEF7DEFB48
:1084D0000721152000F0B6FC08B1FEF7D7FB00F02D
:1084E00079FD012000F010FDE5E700009844002030
:1084F00008960200116C02000EB50749684600F0AC
:108500003FF805E0D0E900108847684600F04FF8D2
:1085100002980028F6D10EBD24960200014800788A
:1085200070470000984400200548817819B1007810
:1085300018B1FFF76FBF08207047FFF795BF000025
:10854000984400201FB568464BDF30B1052814D091
:1085500004B0BDE81040FEF799BB084901A800F03F
:108560000FF806E0D0E900210098904701A800F03C
:108570001EF803980028E6D0F4E71FBD1898020003
:10858000016009684160AFF3008010B5D0E90021B7
:108590005368994201D1002104E0D1E90034A3429B
:1085A00002D01946816010BD08314160F0E7816852
:1085B00000290BD0026892680A44826041684B68C7
:1085C0009A4203D108314160FFF7DFBF70470000D6
:1085D0000C4A10B502F594730EE0991AC91001EB1C
:1085E000D171491002EBC1010C68844201D90B46DC
:1085F00002E005D201F108029A42EED3002010BD3C
:10860000486810BDB094020000B5FFF7E1FF0028F4
:1086100000D1014800BD00009C94020000F59A6161
:10862000D0F8D0040860704708B500234350405884
:10863000009008BD08480168012011F0010F07D122
:10864000064AE021117004497C39C1F8FC01C86771
:10865000034908607047000000E100E000E400E02A
:10866000180500400649024600200B790BB1852011
:1086700070470A6001220A7100224A7170470000A7
:10868000F043002004480121016004480168C1F35F
:1086900000410029FAD170470C0000401804004046
:1086A000002802D001498001084770475194020018
:1086B0000121B1EB507F01D10120704700207047AC
:1086C00038B50D4600F03AFB040014D000208DF8B8
:1086D00000006846FEF7E6FA207928B19DF8000010
:1086E000FEF702FB112038BD0120256020719DF8A6
:1086F0000000FEF7F9FA002038BDA1F580718A0864
:1087000001219140014201D00120704700207047B3
:108710001CB500230622CDE900230B4601220021CF
:10872000FFF748F91CBD000070B5046800791849CE
:1087300000EB400001EB80054FF482712046FFF70B
:1087400073FF4FF492712046FFF76EFF4FF4A6714E
:108750002046FFF769FF4FF4A8712046FFF764FF3A
:108760004FF4B2712046FFF75FFF4FF4B47120461B
:10877000FFF75AFF286810B10648C4F8040309201F
:10878000C4F800050020686002212972687270BD7B
:10879000144600200202180670B542580C461AB161
:1087A0000125FFF741FF00E00025A4F58074A00833
:1087B00005FA00F070BD00002DE9F041046817468D
:1087C00000790D46304A00EB400102EB8106317A18
:1087D00011B10820BDE8F0812C4951F82010204645
:1087E000FFF76EFF08B11120F4E7204600F0AAF968
:1087F000297CA868FFF78CFF697CE868FFF788FF91
:10880000D5E90002002150EA020312D000B1012193
:108810000AB141F00201C4F30730AA7C40B200283B
:108820004FEA421207DADFF868C000F00F03634432
:1088300005E00121EFE7DFF85CC000EB0C031A70E4
:1088400000F01F0C012303FA0CF24FEA501C4FF00A
:10885000E02000EB8C00C0F88022C0F80021D5E9B0
:108860000202C4F80805C4F80C252878C4F8880565
:108870002879C4F88C05C4F894150020B072707281
:1088800037603372A6E70000144600203C940200D3
:1088900014ED00E000E400E01CB50AB94FF480726A
:1088A0008DF8001001924168114341606946FEF75E
:1088B00027FB1CBD70B506460C4600790F4900EB3E
:1088C000400001EB80001546007A022801D0082004
:1088D00070BD2046FFF7ECFE18B1280A03D009202E
:1088E00070BD102070BD3368E8B2C3F83445C3F8DA
:1088F000380501201863002070BD000014460020D8
:108900002DE9FC5F8246887A0E4600287ED1012739
:10891000B772757A4FF4827B59465046FFF73CFF99
:1089200004464FF492715046FFF736FF40EA0408C0
:108930004FF4A6715046FFF72FFF40EA08044FF4AA
:10894000A8715046FFF728FF40EA04084FF4B271BF
:108950005046FFF721FF40EA08094FF4B471504632
:10896000FFF71AFF50EA09044FF000080FD0052D59
:108970006DD2DFE805F0032F825BB7005946204631
:10898000FFF7BBFE20B100BF34F00204F6D1D2E005
:108990004FF4B4712046FFF7B0FE10B38DF800809D
:1089A0004FF4A8712046FFF7A8FE48B102258DF8C4
:1089B000048069463046FEF7A3FA24F0C3645BE006
:1089C00001258DF8047069463046FEF799FA34F0B7
:1089D000C364DCD04FF4A8712046FFF78EFEA8BB1D
:1089E00036E04FF4B2712046FFF787FE28B303202C
:1089F0008DF800004FF4A6712046FFF77EFE58B1B7
:108A000004258DF804806946304600E096E0FEF7C4
:108A100077FA24F0C36464E003258DF80470694696
:108A20003046FEF76DFA34F0C3640ED04FF4A671F1
:108A30002046FFF762FEE0BB3FE05046FFF7EEFD49
:108A4000024606213046FFF727FF74E011E077E089
:108A50004FF4B2712046FFF750FE50B94FF4B47195
:108A60002046FFF74AFE20B959462046FFF745FE4B
:108A700050B1022524F48014F4B34FF4B2712046AF
:108A8000FFF73BFE90B905E05046FFF7C7FD0246F1
:108A900002214CE04FF4B4712046FFF72EFE28B9B6
:108AA00059462046FFF729FE0028EDD08DF80070CA
:108AB00000E013E0DAF84C052CE04FF4B2712046E8
:108AC000FFF71BFE50B94FF4B4712046FFF715FEB7
:108AD00020B959462046FFF710FE18B3042524F4A8
:108AE00000244CB14FF4B2712046FFF706FE60B986
:108AF0004FF4B471204600E01DE0FFF7FEFD20B901
:108B000059462046FFF7F9FD60B104208DF80000BA
:108B1000DAF83C056946C0B201903046FEF7F0F93C
:108B2000002531E75046FFF779FD02460521304622
:108B3000FFF7B2FE0025757286F80A80BDE8FC9F3B
:108B400000251BE710B50021C0F80015491EC0F82C
:108B50000815C0F80C15C0F3073252B202F01F041A
:108B60000123A34052094FF0E02404EB8202C2F833
:108B70008031C0F8081310BD70B506460C46007968
:108B80000F4900EB400001EB80001546007A0228F7
:108B900001D0082070BD2046FFF78AFD18B1280AD1
:108BA00003D0092070BD102070BD3368E8B2C3F84F
:108BB0004445C3F8480501205863002070BD0000FB
:108BC000144600202DE9FC4100216A464318DB7859
:108BD0005354491CC9B20629F8D315461B4C002230
:108BE00002EB4206002314F8161069B1002104EBD1
:108BF00046066F5C16F801C0674503D15B1C491C33
:108C00000629F6DB062B03D0521C142AE8DB12E0FF
:108C1000511C10D090F913300D480D498354143174
:108C200003F1800088540B480321008801EB0040C9
:108C300009A1FFF7E8F80549083900208ADF002874
:108C400001D0FEF723F8BDE8FC8100007843002046
:108C5000E4440020D4440020626561636F6E2025E7
:108C6000643A20256400000010B50C46017A0529FD
:108C700008D0407A38B1084808A102682046FEF7BB
:108C800021FD00E01AB106A12046FEF71BFD20469B
:108C9000BDE81040FEF723BD74440020257300009A
:108CA0000D0A000038B5C3880D46044633B114A040
:108CB000009015A216A12846FEF704FD217A052989
:108CC0001CD0607A48B1A088FEF75AFF164951F8C7
:108CD000202016A12846FEF7F5FCA0880021FFF70A
:108CE00027F903461049207A143951F8202001B0A1
:108CF0002846BDE830400EA1FEF7E4BC38BD0000B8
:108D00001B5B306D000000001B5B313B33316D009D
:108D100025734C6F67732064726F707065642028D0
:108D200025642925730D0A00744400202573000072
:108D30003C25733E2025733A2000000003498842F9
:108D400001D1034870470020704700000020004018
:108D5000F8430020034802490068FEF7ABBB00005F
:108D60002C440020689402002DE9F041234C00259A
:108D7000234E207A012730B92248311D0068FEF7C2
:108D8000A4FB306038B1022020723168087928B124
:108D900001281ED116E06560BDE8F081D1E9050328
:108DA000C01A4FF48052904200D31046B7EB900F98
:108DB00001D2820800E001220869C96818441944F8
:108DC00029DF03E0D1E90301084428DF58B1112865
:108DD00012D003213068FEF763F925726560BDE8A3
:108DE000F041FFF7B7BF207C0028D5D1BDE8F041A6
:108DF00000210220FEF78CBD2772CDE7D04700206E
:108E0000284400206894020070B501260A487104C5
:108E100000250160094C4810C4F84803C4F8080351
:108E200066602F20FFF73CFCA660054C2F20A56054
:108E3000FFF736FCA57070BD80E100E00010014036
:108E40000044002070B50D460446FDF7C3FE60B136
:108E50002846FDF7D1FE58B16807000E002C0ADA4B
:108E6000074A04F00F01114407E042F2010070BD0F
:108E700042F2020070BD034921440870002070BD19
:108E800014ED00E000E400E038B50021012548B110
:108E900001280AD0032807D1FFF7CCFBBDE83840F2
:108EA000FEF7F8BB0A48056038BD8DF8001068462B
:108EB000FDF7F8FE074C207808B9FEF7CFFBE06815
:108EC000401CE060A5709DF80000FDF70DFF38BD67
:108ED00080E100E0A44500203EB50446094968460B
:108EE000FFF74EFB08E000BFD0E900212046904785
:108EF00030B16846FFF75BFB02980028F4D13EBD15
:108F000011203EBD0C9602003EB504460849684655
:108F1000FFF736FB07E000BFD0E90021204690476D
:108F20006846FFF744FB02980028F5D13EBD0000DB
:108F3000189602002DE9F0411400884618D000254B
:108F40000E4F032608EB050122460020FDF7D2FB59
:108F50000544241A40B93878002809D008494FF44C
:108F60007A408847761E05D001203870002CE9D160
:108F7000BDE8F08100203870FAE700003844002096
:108F8000F1950200002805D1034901204870002016
:108F9000FDF7C4BF70470000A445002010B516209F
:108FA000FDF718FE40B1094882684FF480014AB1CC
:108FB000016821F4800106E0BDE8104042F20100A2
:108FC000FDF764BE0248016010BD00003847002074
:108FD00080E100E010B51620FDF7FCFD70B10D48F2
:108FE00000784009FDF708FE58B10B4882684FF43D
:108FF000800162B1016841F4800109E042F20100A0
:1090000001E042F20200BDE81040FDF73FBE034818
:10901000016010BD16E400E03847002000E100E0E8
:109020002DE9F84FDFF888809346894607461E46AB
:10903000012269461846D8F80850FDF7FFFE60B3D4
:109040000098C2460446801C002108E000EA0502A0
:109050005BF821300AEB8202401C491CD360B1420C
:10906000F4D3C8464FEA1749FDF7F0FF611C2940C9
:109070000AEB810149EA00422C40CA600AEB8401F4
:10908000C86867F3C50066F3891068F39F2020F075
:109090000300401C20F00400C860054890F820043C
:1090A00002E000BFFEF792FD0028FBD1BDE8F88F7B
:1090B000F04800202DE9F84F1D4C00256846D4E902
:1090C00001A6FDF7CDFF002738B30023009A6168A1
:1090D0001CE0D1F800C00846944503D9ACEB02026D
:1090E0000A6015E0A2EB0C0263440760D0F80CC0E4
:1090F000C1698146BCF1000F08D006EB030828F0D7
:109100007F48C0E9018CC9F81C5005460029E0D110
:1091100028466160FEF768F803E02846FEF764F829
:1091200010B15046FDF71CFFE770BDE8F88F000056
:10913000004400200D4B10B5596831B102680C682D
:10914000A24204D8A21A0A60C161586010BD0B4641
:1091500003E00B46C969121B21B10C689442F8D395
:10916000A41A0C600260C161D86110BD00440020E7
:109170002DE9F041144E77683D462C4603E08442C9
:1091800004D02546E469002CF9D11BE0D4B1A542F6
:109190000BD1F869706040B90C490120886000214A
:1091A000B160F0702F20FFF77BFA2168E069E86179
:1091B00010B10268114401607068874202D001203A
:1091C000BDE8F0810020FBE70044002000100140D2
:1091D0002DE9F041194D6C68002C2CD0184800275F
:1091E0000068A968B846401A20F07F462068B0425F
:1091F0000CD82146361A0744E469087C20B181F86E
:109200001080886949698847002CEFD129786878EF
:10921000814206D1401CC0B26870022801D185F895
:109220000180064869780C3040F82170BDE8F041B3
:109230001420FDF719BABDE8F081000000440020B9
:109240000415014070B50178164D032469B1012958
:1092500018D0032925D10079002822D0BDE870401C
:10926000042211491148FFF725BB0079002818D0C6
:1092700014220F490D48FFF77FFC28880DA104EB4D
:1092800000400AE000200A4A01461154401C1428FC
:10929000FBDB288810A104EB0040BDE87040FEF71E
:1092A000A7BD70BDD44400206C4300200C94020084
:1092B000F844002054574953206765742064617452
:1092C00061207472616E7366657220726571756576
:1092D00073742E0A000000005457495320646174CF
:1092E00061207472616E7366657220646F6E652EA4
:1092F0000A00000000B585B014220D496846FDF74C
:1093000075F80B480B4A69461838FFF755FA08B14B
:10931000FDF7BCFC06481838FFF706FA064803219B
:10932000008801EB004005A1FEF762FD05B000BD1D
:109330002494020045920200D4440020545749531B
:1093400020696E6974696174696F6E2073756363F7
:109350006573732E0A0000002DE9F05F8346DDE996
:109360000A4A994690460D460846012703E000BF89
:10937000B0FBF8F07F1C4045FAD2B94500D94F4602
:109380005FEACA7012D18CB15FEA8A7002D5B9F176
:10939000000F01D0202607E0302605E0641E31468C
:1093A0005846FDF793FD0CB1A742F7D35FF00106D5
:1093B000B9F1010F02D9A9F1010903E0B5FBF6F0FB
:1093C000404502D306FB08F6F2E7DFF83C9000BF09
:1093D000B5FBF6F000FB165519F800105846FDF7DE
:1093E00075FDB6FBF8F6002EF2D15FEACA7009D01F
:1093F000002C07D0A74205D2641E20215846FDF755
:1094000065FDF5E7BDE8F09F56940200003000408E
:109410000000000000010002A000000000000000A9
:109420000000000074000000000000001B000000AD
:109430001A00000000000200000000505167020006
:109440006167020000000000000000000000000052
:109450000338FDD870473031323334353637383938
:1094600041424344454600001444002000100000DF
:1094700004000000010000000000000000000000E7
:1094800000000000000000000000000000000000DC
:10949000789402009094020004000000556E6B6EF8
:1094A0006F776E206572726F7220636F6465000063
:1094B00000000000FA9B020001000000B49A0200C4
:1094C00002000000C398020003000000239B02007A
:1094D00004000000749B0200050000005F9A020077
:1094E00006000000019A0200070000005C9B0200D9
:1094F00008000000739A020009000000D29A0200DE
:109500000A000000E29B02000B000000AC98020081
:109510000C0000008B9A02000D000000459C020028
:109520000E0000004D9B02000F000000859B020012
:1095300010000000B79B020011000000579C0200C1
:1095400012000000309C020013000000CE9B0200BD
:1095500080000000199A0200810000005D9902005D
:10956000820000002099020083000000029902009E
:10957000840000003C990200850000003A9A020035
:1095800086000000369B020090000000E399020074
:1095900091000000E4980200920000009F9A0200EF
:1095A00000820000999B020001820000EB9A0200F9
:1095B00002820000079B02000084000079990200EB
:1095C00001840000069C020002840000BE99020093
:1095D000038400009D990200A17A02009F7A020094
:1095E000997A020000000000000000000000000066
:1095F0000338FDD870470000449E02004C9E0200D4
:10960000000000000000000001000007F8950200C3
:109610000896020008000000309602004096020002
:10962000080000004096020050960200080000006A
:109630006C9E02007C9E0200000000000000000002
:109640005C9E02006C9E0200000000000000000012
:10965000349E02003C9E020000000000000000005A
:1096600000000000000000003C9E0200449E02003A
:109670006843002050960200709602000800000027
:1096800073645F626C655F6366675F7365742829E6
:109690002072657475726E65642025732077686525
:1096A0006E20617474656D7074696E6720746F20CC
:1096B00073657420424C455F434F4E4E5F434647AF
:1096C0005F4741502E00000073645F626C655F630A
:1096D00066675F73657428292072657475726E659C
:1096E00064202573207768656E20617474656D70E1
:1096F00074696E6720746F2073657420424C455FF7
:109700004741505F4346475F524F4C455F434F557B
:109710004E542E0073645F626C655F6366675F73AF
:10972000657428292072657475726E6564202573CE
:10973000207768656E20617474656D7074696E67FA
:1097400020746F2073657420424C455F434F4D4D2C
:109750004F4E5F4346475F56535F555549442E0071
:1097600073645F626C655F6366675F736574282905
:109770002072657475726E65642025732077686544
:109780006E20617474656D7074696E6720746F20EB
:1097900073657420424C455F47415454535F4346C0
:1097A000475F415454525F5441425F53495A452EDA
:1097B0000000000073645F626C655F6366675F73DF
:1097C000657428292072657475726E65642025732E
:1097D000207768656E20617474656D7074696E675A
:1097E00020746F2073657420424C455F4741545488
:1097F000535F4346475F534552564943455F43488D
:10980000414E4745442E00004C9E02005C9E0200E3
:1098100000000000000000000898020018980200F4
:10982000080000000040404040404040404041416E
:109830004141414040404040404040404040404025
:1098400040404040400502020202020202020202BF
:1098500002020202022020202020202020202002BC
:10986000020202020202909090909090101010104C
:1098700010101010101010101010101010101010E8
:10988000020202020202888888888888080808087C
:109890000808080808080808080808080808080848
:1098A0000202020240000000259802004E52465F6C
:1098B0004552524F525F494E56414C49445F4441D4
:1098C0005441004E52465F4552524F525F534F46ED
:1098D000544445564943455F4E4F545F454E4142BF
:1098E0004C4544004E52465F4552524F525F4645EA
:1098F00041545552455F4E4F545F454E41424C4591
:1099000044004E52465F4552524F525F4D555445AA
:10991000585F554E4C4F434B5F4641494C454400C0
:109920004E52465F4552524F525F4D555445585F17
:109930004C4F434B5F4641494C4544004E52465FB5
:109940004552524F525F4D555445585F434F4E4418
:109950005F494E49545F4641494C4544004E52468A
:109960005F4552524F525F4D555445585F494E49DD
:10997000545F4641494C4544004E52465F45525261
:109980004F525F424C455F495053505F52585F50B1
:109990004B545F5452554E4341544544004E524639
:1099A0005F4552524F525F424C455F495053505FA2
:1099B000504545525F52454A4543544544004E5236
:1099C000465F4552524F525F424C455F495053509B
:1099D0005F4C494E4B5F444953434F4E4E454354B1
:1099E0004544004E52465F4552524F525F415049E6
:1099F0005F4E4F545F494D504C454D454E54454484
:109A0000004E52465F4552524F525F4E4F545F5385
:109A10005550504F52544544004E52465F455252A5
:109A20004F525F4D4F44554C455F4E4F545F494E2A
:109A3000495449414C495A4544004E52465F4552AB
:109A4000524F525F4D4F44554C455F414C5245413A
:109A500044595F494E495449414C495A4544004E86
:109A600052465F4552524F525F4E4F545F464F55DC
:109A70004E44004E52465F4552524F525F494E5639
:109A8000414C49445F5354415445004E52465F4552
:109A900052524F525F444154415F53495A45004E20
:109AA00052465F4552524F525F494F5F50454E44B8
:109AB000494E47004E52465F4552524F525F5356F1
:109AC000435F48414E444C45525F4D495353494EC4
:109AD00047004E52465F4552524F525F494E5641E3
:109AE0004C49445F4C454E475448004E52465F45F2
:109AF00052524F525F4452565F5457495F4552523B
:109B00005F414E41434B004E52465F4552524F52C9
:109B10005F4452565F5457495F4552525F444E412D
:109B2000434B004E52465F4552524F525F494E548E
:109B300045524E414C004E52465F4552524F525F85
:109B400053544F524147455F46554C4C004E524688
:109B50005F4552524F525F4E554C4C004E52465F3D
:109B60004552524F525F494E56414C49445F504115
:109B700052414D004E52465F4552524F525F4E4F3A
:109B80005F4D454D004E52465F4552524F525F4623
:109B90004F5242494444454E004E52465F45525250
:109BA0004F525F4452565F5457495F4552525F4F80
:109BB00056455252554E004E52465F4552524F52F4
:109BC0005F494E56414C49445F41444452004E5215
:109BD000465F4552524F525F5245534F555243458F
:109BE00053004E52465F4552524F525F494E5641C6
:109BF0004C49445F464C414753004E52465F5355D3
:109C00004343455353004E52465F4552524F525FB5
:109C1000424C455F495053505F4348414E4E454C7E
:109C20005F414C52454144595F4558495354530094
:109C30004E52465F4552524F525F434F4E4E5F4326
:109C40004F554E54004E52465F4552524F525F544C
:109C5000494D454F5554004E52465F4552524F5262
:109C60005F42555359007761726E696E6700646593
:109C7000627567001B5B313B33306D001B5B306DE1
:109C8000001B5B313B33316D001B5B313B33326D6D
:109C9000001B5B313B33336D001B5B313B33346D59
:109CA000001B5B313B33356D001B5B313B33366D45
:109CB000001B5B313B33376D00696E666F00657268
:109CC000726F7200626C655F64625F6469736300E7
:109CD0006E72665F626C655F6761747400626C656A
:109CE0005F6C62735F6300636C6F636B00434C4F28
:109CF000434B004750494F54450050525300554183
:109D000052540055415254450054574953006E7205
:109D1000665F6673746F7261676500617466696619
:109D20006F2E6D5F6669666F007077725F6D676D2D
:109D3000740062616C6C6F632E6C6F675F6D656D34
:109D4000706F6F6C00617070006E72665F73646834
:109D5000006E72665F7364685F626C65006E726647
:109D60005F7364685F736F63000000007C9E020095
:109D7000684300207C010000786402003C9F0200E0
:109D8000E4440020BC2A0000C66B0200C49C020010
:109D900000000303D09C020000000303DD9C0200CE
:109DA00000000303E79C020000000000ED9C02009D
:109DB00000000000F39C020000000000FA9C02007A
:109DC00000000000FE9C020000000000039D020055
:109DD00000000000099D0200000000000E9D02002E
:109DE000000003031B9D020000000003299D0200E8
:109DF00000000000329D020000000003459D0200AB
:109E000000000303499D020000000303519D02006E
:109E1000000003035D9D0200000003035044002086
:109E2000484400205044002030480020D044002006
:109E300018000000396D020000000000296D0200CA
:109E400000000000D578020000000000858F0200AD
:109E5000000000001179020000000000B983020038
:109E6000000000004585020000000000898E02000D
:109E700000000000ED78020000000000114490D0C6
:109E800003130C4533201F101420BCF63419D7AA35
:109E9000F58BE9CAF2EA8D4ACE3CF2F71021CD6C7F
:109EA0000FD738EFAAC3F4F75F74C67C5CFDB1DA54
:109EB0003398D1CA3D849EF94DD6E3B2C69400448E
:109EC00034CB4AC4C6819DF8804E1CC949EBC2669A
:109ED000E927E4C72B12E109DEF32760711D9BCC53
:109EE00057B740C57EDC200A663729E8E24FB9390A
:109EF000D7F24705503567F56D6B519CFCDBF3C617
:109F000024AA79DA13C8440214200425D89502142F
:109F1000BE9C021A66041AB9041A6E041A7C041A4A
:109F200074041A81041A89041A91041A99041AA152
:0C9F3000041AA9041AB104014C0000003E
:040000050002620192
:00000001FF
